{
  "contractName": "Orderbook",
  "abi": [
    {
      "constant": true,
      "inputs": [],
      "name": "ERC20Counter",
      "outputs": [
        {
          "name": "",
          "type": "address"
        }
      ],
      "payable": false,
      "stateMutability": "view",
      "type": "function",
      "signature": "0x643380c8"
    },
    {
      "constant": true,
      "inputs": [],
      "name": "ERC20Base",
      "outputs": [
        {
          "name": "",
          "type": "address"
        }
      ],
      "payable": false,
      "stateMutability": "view",
      "type": "function",
      "signature": "0xf73d594c"
    },
    {
      "inputs": [
        {
          "name": "Base",
          "type": "address"
        },
        {
          "name": "Counter",
          "type": "address"
        }
      ],
      "payable": false,
      "stateMutability": "nonpayable",
      "type": "constructor",
      "signature": "constructor"
    },
    {
      "anonymous": false,
      "inputs": [
        {
          "indexed": true,
          "name": "Order_No",
          "type": "uint256"
        },
        {
          "indexed": false,
          "name": "Amt",
          "type": "uint256"
        },
        {
          "indexed": false,
          "name": "Price",
          "type": "uint256"
        },
        {
          "indexed": false,
          "name": "trader",
          "type": "address"
        }
      ],
      "name": "BuyAdded",
      "type": "event",
      "signature": "0xeec31938dcc0f8ccd70365d0386d9c921102ec65dabec56679110a206d645400"
    },
    {
      "anonymous": false,
      "inputs": [
        {
          "indexed": true,
          "name": "Order_No",
          "type": "uint256"
        },
        {
          "indexed": false,
          "name": "Amt",
          "type": "uint256"
        },
        {
          "indexed": false,
          "name": "Price",
          "type": "uint256"
        },
        {
          "indexed": false,
          "name": "trader",
          "type": "address"
        }
      ],
      "name": "SellAdded",
      "type": "event",
      "signature": "0x3e2753551927f57b3413932d664aa709bf88101e7738c42a259e2ecf60d6bddd"
    },
    {
      "anonymous": false,
      "inputs": [
        {
          "indexed": true,
          "name": "Order_No",
          "type": "uint256"
        },
        {
          "indexed": false,
          "name": "Amt",
          "type": "uint256"
        },
        {
          "indexed": false,
          "name": "Price",
          "type": "uint256"
        },
        {
          "indexed": false,
          "name": "maker",
          "type": "address"
        },
        {
          "indexed": false,
          "name": "taker",
          "type": "address"
        }
      ],
      "name": "TradeAdd",
      "type": "event",
      "signature": "0xc8b5e44960970fb71011318541ef5ab775a79f252adf45f49a93ef5d29e4fc3e"
    },
    {
      "constant": false,
      "inputs": [
        {
          "name": "Amt",
          "type": "uint256"
        },
        {
          "name": "BuyPrice",
          "type": "uint256"
        }
      ],
      "name": "addBuy",
      "outputs": [
        {
          "name": "",
          "type": "uint256"
        }
      ],
      "payable": false,
      "stateMutability": "nonpayable",
      "type": "function",
      "signature": "0x2a6e7437"
    },
    {
      "constant": false,
      "inputs": [
        {
          "name": "Amt",
          "type": "uint256"
        },
        {
          "name": "SellPrice",
          "type": "uint256"
        }
      ],
      "name": "addSell",
      "outputs": [
        {
          "name": "",
          "type": "uint256"
        }
      ],
      "payable": false,
      "stateMutability": "nonpayable",
      "type": "function",
      "signature": "0x4b820070"
    },
    {
      "constant": true,
      "inputs": [],
      "name": "viewLengthBuy",
      "outputs": [
        {
          "name": "",
          "type": "uint256"
        }
      ],
      "payable": false,
      "stateMutability": "view",
      "type": "function",
      "signature": "0x22f7092a"
    },
    {
      "constant": true,
      "inputs": [],
      "name": "viewLengthSell",
      "outputs": [
        {
          "name": "",
          "type": "uint256"
        }
      ],
      "payable": false,
      "stateMutability": "view",
      "type": "function",
      "signature": "0x5eef2925"
    },
    {
      "constant": true,
      "inputs": [
        {
          "name": "OrderNo",
          "type": "uint256"
        }
      ],
      "name": "viewBuy",
      "outputs": [
        {
          "name": "",
          "type": "uint256"
        },
        {
          "name": "",
          "type": "uint256"
        },
        {
          "name": "",
          "type": "uint256"
        },
        {
          "name": "",
          "type": "address"
        }
      ],
      "payable": false,
      "stateMutability": "view",
      "type": "function",
      "signature": "0x28ce6014"
    },
    {
      "constant": true,
      "inputs": [
        {
          "name": "OrderNo",
          "type": "uint256"
        }
      ],
      "name": "viewSell",
      "outputs": [
        {
          "name": "",
          "type": "uint256"
        },
        {
          "name": "",
          "type": "uint256"
        },
        {
          "name": "",
          "type": "uint256"
        },
        {
          "name": "",
          "type": "address"
        }
      ],
      "payable": false,
      "stateMutability": "view",
      "type": "function",
      "signature": "0x4930983f"
    },
    {
      "constant": false,
      "inputs": [
        {
          "name": "OrderNo",
          "type": "uint256"
        },
        {
          "name": "Amt",
          "type": "uint256"
        },
        {
          "name": "TradePrice",
          "type": "uint256"
        },
        {
          "name": "trade_type",
          "type": "uint256"
        }
      ],
      "name": "trade",
      "outputs": [
        {
          "name": "",
          "type": "uint256"
        },
        {
          "name": "",
          "type": "uint256"
        },
        {
          "name": "",
          "type": "address"
        }
      ],
      "payable": false,
      "stateMutability": "nonpayable",
      "type": "function",
      "signature": "0xad3a39b0"
    },
    {
      "constant": false,
      "inputs": [],
      "name": "decommission",
      "outputs": [],
      "payable": false,
      "stateMutability": "nonpayable",
      "type": "function",
      "signature": "0x7f068c0f"
    }
  ],
  "bytecode": "0x608060405234801561001057600080fd5b506040516040806127978339810180604052604081101561003057600080fd5b81019080805190602001909291908051906020019092919050505081600260006101000a81548173ffffffffffffffffffffffffffffffffffffffff021916908373ffffffffffffffffffffffffffffffffffffffff16021790555080600360006101000a81548173ffffffffffffffffffffffffffffffffffffffff021916908373ffffffffffffffffffffffffffffffffffffffff16021790555033600460006101000a81548173ffffffffffffffffffffffffffffffffffffffff021916908373ffffffffffffffffffffffffffffffffffffffff16021790555050506126788061011f6000396000f3fe6080604052600436106100a4576000357c0100000000000000000000000000000000000000000000000000000000900463ffffffff16806322f7092a146100a957806328ce6014146100d45780632a6e7437146101645780634930983f146101bd5780634b8200701461024d5780635eef2925146102a6578063643380c8146102d15780637f068c0f14610328578063ad3a39b01461033f578063f73d594c146103e6575b600080fd5b3480156100b557600080fd5b506100be61043d565b6040518082815260200191505060405180910390f35b3480156100e057600080fd5b5061010d600480360360208110156100f757600080fd5b8101908080359060200190929190505050610449565b604051808581526020018481526020018381526020018273ffffffffffffffffffffffffffffffffffffffff1673ffffffffffffffffffffffffffffffffffffffff16815260200194505050505060405180910390f35b34801561017057600080fd5b506101a76004803603604081101561018757600080fd5b81019080803590602001909291908035906020019092919050505061050e565b6040518082815260200191505060405180910390f35b3480156101c957600080fd5b506101f6600480360360208110156101e057600080fd5b8101908080359060200190929190505050610833565b604051808581526020018481526020018381526020018273ffffffffffffffffffffffffffffffffffffffff1673ffffffffffffffffffffffffffffffffffffffff16815260200194505050505060405180910390f35b34801561025957600080fd5b506102906004803603604081101561027057600080fd5b8101908080359060200190929190803590602001909291905050506108f4565b6040518082815260200191505060405180910390f35b3480156102b257600080fd5b506102bb610c07565b6040518082815260200191505060405180910390f35b3480156102dd57600080fd5b506102e6610c14565b604051808273ffffffffffffffffffffffffffffffffffffffff1673ffffffffffffffffffffffffffffffffffffffff16815260200191505060405180910390f35b34801561033457600080fd5b5061033d610c3a565b005b34801561034b57600080fd5b506103966004803603608081101561036257600080fd5b81019080803590602001909291908035906020019092919080359060200190929190803590602001909291905050506110cc565b604051808481526020018381526020018273ffffffffffffffffffffffffffffffffffffffff1673ffffffffffffffffffffffffffffffffffffffff168152602001935050505060405180910390f35b3480156103f257600080fd5b506103fb612559565b604051808273ffffffffffffffffffffffffffffffffffffffff1673ffffffffffffffffffffffffffffffffffffffff16815260200191505060405180910390f35b60008080549050905090565b60008060008060006001860381548110151561046157fe5b90600052602060002090600402016000015460006001870381548110151561048557fe5b9060005260206000209060040201600101546000600188038154811015156104a957fe5b9060005260206000209060040201600201546000600189038154811015156104cd57fe5b906000526020600020906004020160030160009054906101000a900473ffffffffffffffffffffffffffffffffffffffff1693509350935093509193509193565b6000600260009054906101000a900473ffffffffffffffffffffffffffffffffffffffff1673ffffffffffffffffffffffffffffffffffffffff166323b872dd3330610563868861257f90919063ffffffff16565b6040518463ffffffff167c0100000000000000000000000000000000000000000000000000000000028152600401808473ffffffffffffffffffffffffffffffffffffffff1673ffffffffffffffffffffffffffffffffffffffff1681526020018373ffffffffffffffffffffffffffffffffffffffff1673ffffffffffffffffffffffffffffffffffffffff1681526020018281526020019350505050602060405180830381600087803b15801561061b57600080fd5b505af115801561062f573d6000803e3d6000fd5b505050506040513d602081101561064557600080fd5b810190808051906020019092919050505050600060a0604051908101604052808581526020018481526020014281526020013373ffffffffffffffffffffffffffffffffffffffff1681526020017f41000000000000000000000000000000000000000000000000000000000000007dffffffffffffffffffffffffffffffffffffffffffffffffffffffffffff19168152509080600181540180825580915050906001820390600052602060002090600402016000909192909190915060008201518160000155602082015181600101556040820151816002015560608201518160030160006101000a81548173ffffffffffffffffffffffffffffffffffffffff021916908373ffffffffffffffffffffffffffffffffffffffff16021790555060808201518160030160146101000a81548161ffff02191690837e01000000000000000000000000000000000000000000000000000000000000900402179055505050506000805490507f3e2753551927f57b3413932d664aa709bf88101e7738c42a259e2ecf60d6bddd848433604051808481526020018381526020018273ffffffffffffffffffffffffffffffffffffffff1673ffffffffffffffffffffffffffffffffffffffff168152602001935050505060405180910390a2600080549050905092915050565b600080600080600180860381548110151561084a57fe5b906000526020600020906004020160000154600180870381548110151561086d57fe5b906000526020600020906004020160010154600180880381548110151561089057fe5b90600052602060002090600402016002015460018089038154811015156108b357fe5b906000526020600020906004020160030160009054906101000a900473ffffffffffffffffffffffffffffffffffffffff1693509350935093509193509193565b6000600360009054906101000a900473ffffffffffffffffffffffffffffffffffffffff1673ffffffffffffffffffffffffffffffffffffffff166323b872dd3330866040518463ffffffff167c0100000000000000000000000000000000000000000000000000000000028152600401808473ffffffffffffffffffffffffffffffffffffffff1673ffffffffffffffffffffffffffffffffffffffff1681526020018373ffffffffffffffffffffffffffffffffffffffff1673ffffffffffffffffffffffffffffffffffffffff1681526020018281526020019350505050602060405180830381600087803b1580156109ef57600080fd5b505af1158015610a03573d6000803e3d6000fd5b505050506040513d6020811015610a1957600080fd5b810190808051906020019092919050505050600160a0604051908101604052808581526020018481526020014281526020013373ffffffffffffffffffffffffffffffffffffffff1681526020017f41000000000000000000000000000000000000000000000000000000000000007dffffffffffffffffffffffffffffffffffffffffffffffffffffffffffff19168152509080600181540180825580915050906001820390600052602060002090600402016000909192909190915060008201518160000155602082015181600101556040820151816002015560608201518160030160006101000a81548173ffffffffffffffffffffffffffffffffffffffff021916908373ffffffffffffffffffffffffffffffffffffffff16021790555060808201518160030160146101000a81548161ffff02191690837e01000000000000000000000000000000000000000000000000000000000000900402179055505050506001805490507feec31938dcc0f8ccd70365d0386d9c921102ec65dabec56679110a206d645400848433604051808481526020018381526020018273ffffffffffffffffffffffffffffffffffffffff1673ffffffffffffffffffffffffffffffffffffffff168152602001935050505060405180910390a2600180549050905092915050565b6000600180549050905090565b600360009054906101000a900473ffffffffffffffffffffffffffffffffffffffff1681565b600460009054906101000a900473ffffffffffffffffffffffffffffffffffffffff1673ffffffffffffffffffffffffffffffffffffffff163373ffffffffffffffffffffffffffffffffffffffff16141515610c9657600080fd5b60008090505b60008054905081111580610cb557506001805490508111155b156110c95760008054905081111515610ed85760008082815481101515610cd857fe5b9060005260206000209060040201600001549050610d1f600083815481101515610cfe57fe5b9060005260206000209060040201600101548261257f90919063ffffffff16565b9050600260009054906101000a900473ffffffffffffffffffffffffffffffffffffffff1673ffffffffffffffffffffffffffffffffffffffff1663a9059cbb600084815481101515610d6e57fe5b906000526020600020906004020160030160009054906101000a900473ffffffffffffffffffffffffffffffffffffffff16836040518363ffffffff167c0100000000000000000000000000000000000000000000000000000000028152600401808373ffffffffffffffffffffffffffffffffffffffff1673ffffffffffffffffffffffffffffffffffffffff16815260200182815260200192505050602060405180830381600087803b158015610e2657600080fd5b505af1158015610e3a573d6000803e3d6000fd5b505050506040513d6020811015610e5057600080fd5b810190808051906020019092919050505050600082815481101515610e7157fe5b9060005260206000209060040201600080820160009055600182016000905560028201600090556003820160006101000a81549073ffffffffffffffffffffffffffffffffffffffff02191690556003820160146101000a81549061ffff02191690555050505b600180549050811115156110bc57600360009054906101000a900473ffffffffffffffffffffffffffffffffffffffff1673ffffffffffffffffffffffffffffffffffffffff1663a9059cbb600183815481101515610f3357fe5b906000526020600020906004020160030160009054906101000a900473ffffffffffffffffffffffffffffffffffffffff16600184815481101515610f7457fe5b9060005260206000209060040201600001546040518363ffffffff167c0100000000000000000000000000000000000000000000000000000000028152600401808373ffffffffffffffffffffffffffffffffffffffff1673ffffffffffffffffffffffffffffffffffffffff16815260200182815260200192505050602060405180830381600087803b15801561100b57600080fd5b505af115801561101f573d6000803e3d6000fd5b505050506040513d602081101561103557600080fd5b81019080805190602001909291905050505060018181548110151561105657fe5b9060005260206000209060040201600080820160009055600182016000905560028201600090556003820160006101000a81549073ffffffffffffffffffffffffffffffffffffffff02191690556003820160146101000a81549061ffff021916905550505b8080600101915050610c9c565b50565b600080600060018414801561110257508560018089038154811015156110ee57fe5b906000526020600020906004020160000154145b1561160d57600180880381548110151561111857fe5b90600052602060002090600402016001015485101515156111a1576040517f08c379a000000000000000000000000000000000000000000000000000000000815260040180806020018281038252600d8152602001807f496e76616c69642050726963650000000000000000000000000000000000000081525060200191505060405180910390fd5b600260009054906101000a900473ffffffffffffffffffffffffffffffffffffffff1673ffffffffffffffffffffffffffffffffffffffff166323b872dd336001808b038154811015156111f157fe5b906000526020600020906004020160030160009054906101000a900473ffffffffffffffffffffffffffffffffffffffff166112586001808d0381548110151561123757fe5b9060005260206000209060040201600101548b61257f90919063ffffffff16565b6040518463ffffffff167c0100000000000000000000000000000000000000000000000000000000028152600401808473ffffffffffffffffffffffffffffffffffffffff1673ffffffffffffffffffffffffffffffffffffffff1681526020018373ffffffffffffffffffffffffffffffffffffffff1673ffffffffffffffffffffffffffffffffffffffff1681526020018281526020019350505050602060405180830381600087803b15801561131057600080fd5b505af1158015611324573d6000803e3d6000fd5b505050506040513d602081101561133a57600080fd5b8101908080519060200190929190505050506000600180890381548110151561135f57fe5b9060005260206000209060040201600001819055507f540000000000000000000000000000000000000000000000000000000000000060018089038154811015156113a657fe5b906000526020600020906004020160030160146101000a81548161ffff02191690837e0100000000000000000000000000000000000000000000000000000000000090040217905550600360009054906101000a900473ffffffffffffffffffffffffffffffffffffffff1673ffffffffffffffffffffffffffffffffffffffff1663a9059cbb33886040518363ffffffff167c0100000000000000000000000000000000000000000000000000000000028152600401808373ffffffffffffffffffffffffffffffffffffffff1673ffffffffffffffffffffffffffffffffffffffff16815260200182815260200192505050602060405180830381600087803b1580156114b457600080fd5b505af11580156114c8573d6000803e3d6000fd5b505050506040513d60208110156114de57600080fd5b810190808051906020019092919050505050867fc8b5e44960970fb71011318541ef5ab775a79f252adf45f49a93ef5d29e4fc3e876001808b0381548110151561152457fe5b9060005260206000209060040201600101546001808c0381548110151561154757fe5b906000526020600020906004020160030160009054906101000a900473ffffffffffffffffffffffffffffffffffffffff1633604051808581526020018481526020018373ffffffffffffffffffffffffffffffffffffffff1673ffffffffffffffffffffffffffffffffffffffff1681526020018273ffffffffffffffffffffffffffffffffffffffff1673ffffffffffffffffffffffffffffffffffffffff16815260200194505050505060405180910390a286863380905092509250925061254f565b60018414801561163e575085600180890381548110151561162a57fe5b906000526020600020906004020160000154115b15611b6c57600260009054906101000a900473ffffffffffffffffffffffffffffffffffffffff1673ffffffffffffffffffffffffffffffffffffffff166323b872dd336001808b0381548110151561169357fe5b906000526020600020906004020160030160009054906101000a900473ffffffffffffffffffffffffffffffffffffffff166116fa6001808d038154811015156116d957fe5b9060005260206000209060040201600101548b61257f90919063ffffffff16565b6040518463ffffffff167c0100000000000000000000000000000000000000000000000000000000028152600401808473ffffffffffffffffffffffffffffffffffffffff1673ffffffffffffffffffffffffffffffffffffffff1681526020018373ffffffffffffffffffffffffffffffffffffffff1673ffffffffffffffffffffffffffffffffffffffff1681526020018281526020019350505050602060405180830381600087803b1580156117b257600080fd5b505af11580156117c6573d6000803e3d6000fd5b505050506040513d60208110156117dc57600080fd5b81019080805190602001909291905050505060018088038154811015156117ff57fe5b9060005260206000209060040201600101548510151515611888576040517f08c379a000000000000000000000000000000000000000000000000000000000815260040180806020018281038252600d8152602001807f496e76616c69642050726963650000000000000000000000000000000000000081525060200191505060405180910390fd5b85600180890381548110151561189a57fe5b9060005260206000209060040201600001540360018089038154811015156118be57fe5b9060005260206000209060040201600001819055507f4100000000000000000000000000000000000000000000000000000000000000600180890381548110151561190557fe5b906000526020600020906004020160030160146101000a81548161ffff02191690837e0100000000000000000000000000000000000000000000000000000000000090040217905550600360009054906101000a900473ffffffffffffffffffffffffffffffffffffffff1673ffffffffffffffffffffffffffffffffffffffff1663a9059cbb33886040518363ffffffff167c0100000000000000000000000000000000000000000000000000000000028152600401808373ffffffffffffffffffffffffffffffffffffffff1673ffffffffffffffffffffffffffffffffffffffff16815260200182815260200192505050602060405180830381600087803b158015611a1357600080fd5b505af1158015611a27573d6000803e3d6000fd5b505050506040513d6020811015611a3d57600080fd5b810190808051906020019092919050505050867fc8b5e44960970fb71011318541ef5ab775a79f252adf45f49a93ef5d29e4fc3e876001808b03815481101515611a8357fe5b9060005260206000209060040201600101546001808c03815481101515611aa657fe5b906000526020600020906004020160030160009054906101000a900473ffffffffffffffffffffffffffffffffffffffff1633604051808581526020018481526020018373ffffffffffffffffffffffffffffffffffffffff1673ffffffffffffffffffffffffffffffffffffffff1681526020018273ffffffffffffffffffffffffffffffffffffffff1673ffffffffffffffffffffffffffffffffffffffff16815260200194505050505060405180910390a286863380905092509250925061254f565b600284148015611b9e575085600060018903815481101515611b8a57fe5b906000526020600020906004020160000154145b1561201457600360009054906101000a900473ffffffffffffffffffffffffffffffffffffffff1673ffffffffffffffffffffffffffffffffffffffff166323b872dd33600060018b03815481101515611bf457fe5b906000526020600020906004020160030160009054906101000a900473ffffffffffffffffffffffffffffffffffffffff16896040518463ffffffff167c0100000000000000000000000000000000000000000000000000000000028152600401808473ffffffffffffffffffffffffffffffffffffffff1673ffffffffffffffffffffffffffffffffffffffff1681526020018373ffffffffffffffffffffffffffffffffffffffff1673ffffffffffffffffffffffffffffffffffffffff1681526020018281526020019350505050602060405180830381600087803b158015611cdf57600080fd5b505af1158015611cf3573d6000803e3d6000fd5b505050506040513d6020811015611d0957600080fd5b81019080805190602001909291905050505060008060018903815481101515611d2e57fe5b9060005260206000209060040201600001819055507f5400000000000000000000000000000000000000000000000000000000000000600060018903815481101515611d7657fe5b906000526020600020906004020160030160146101000a81548161ffff02191690837e0100000000000000000000000000000000000000000000000000000000000090040217905550600260009054906101000a900473ffffffffffffffffffffffffffffffffffffffff1673ffffffffffffffffffffffffffffffffffffffff1663a9059cbb33611e34600060018c03815481101515611e1357fe5b9060005260206000209060040201600101548a61257f90919063ffffffff16565b6040518363ffffffff167c0100000000000000000000000000000000000000000000000000000000028152600401808373ffffffffffffffffffffffffffffffffffffffff1673ffffffffffffffffffffffffffffffffffffffff16815260200182815260200192505050602060405180830381600087803b158015611eb957600080fd5b505af1158015611ecd573d6000803e3d6000fd5b505050506040513d6020811015611ee357600080fd5b810190808051906020019092919050505050867fc8b5e44960970fb71011318541ef5ab775a79f252adf45f49a93ef5d29e4fc3e87600060018b03815481101515611f2a57fe5b906000526020600020906004020160010154600060018c03815481101515611f4e57fe5b906000526020600020906004020160030160009054906101000a900473ffffffffffffffffffffffffffffffffffffffff1633604051808581526020018481526020018373ffffffffffffffffffffffffffffffffffffffff1673ffffffffffffffffffffffffffffffffffffffff1681526020018273ffffffffffffffffffffffffffffffffffffffff1673ffffffffffffffffffffffffffffffffffffffff16815260200194505050505060405180910390a286863380905092509250925061254f565b60028414801561204657508560006001890381548110151561203257fe5b906000526020600020906004020160000154115b156124e157600360009054906101000a900473ffffffffffffffffffffffffffffffffffffffff1673ffffffffffffffffffffffffffffffffffffffff166323b872dd33600060018b0381548110151561209c57fe5b906000526020600020906004020160030160009054906101000a900473ffffffffffffffffffffffffffffffffffffffff16896040518463ffffffff167c0100000000000000000000000000000000000000000000000000000000028152600401808473ffffffffffffffffffffffffffffffffffffffff1673ffffffffffffffffffffffffffffffffffffffff1681526020018373ffffffffffffffffffffffffffffffffffffffff1673ffffffffffffffffffffffffffffffffffffffff1681526020018281526020019350505050602060405180830381600087803b15801561218757600080fd5b505af115801561219b573d6000803e3d6000fd5b505050506040513d60208110156121b157600080fd5b810190808051906020019092919050505050856000600189038154811015156121d657fe5b906000526020600020906004020160000154036000600189038154811015156121fb57fe5b9060005260206000209060040201600001819055507f410000000000000000000000000000000000000000000000000000000000000060006001890381548110151561224357fe5b906000526020600020906004020160030160146101000a81548161ffff02191690837e0100000000000000000000000000000000000000000000000000000000000090040217905550600260009054906101000a900473ffffffffffffffffffffffffffffffffffffffff1673ffffffffffffffffffffffffffffffffffffffff1663a9059cbb33612301600060018c038154811015156122e057fe5b9060005260206000209060040201600101548a61257f90919063ffffffff16565b6040518363ffffffff167c0100000000000000000000000000000000000000000000000000000000028152600401808373ffffffffffffffffffffffffffffffffffffffff1673ffffffffffffffffffffffffffffffffffffffff16815260200182815260200192505050602060405180830381600087803b15801561238657600080fd5b505af115801561239a573d6000803e3d6000fd5b505050506040513d60208110156123b057600080fd5b810190808051906020019092919050505050867fc8b5e44960970fb71011318541ef5ab775a79f252adf45f49a93ef5d29e4fc3e87600060018b038154811015156123f757fe5b906000526020600020906004020160010154600060018c0381548110151561241b57fe5b906000526020600020906004020160030160009054906101000a900473ffffffffffffffffffffffffffffffffffffffff1633604051808581526020018481526020018373ffffffffffffffffffffffffffffffffffffffff1673ffffffffffffffffffffffffffffffffffffffff1681526020018273ffffffffffffffffffffffffffffffffffffffff1673ffffffffffffffffffffffffffffffffffffffff16815260200194505050505060405180910390a286863380905092509250925061254f565b6040517f08c379a00000000000000000000000000000000000000000000000000000000081526004018080602001828103825260188152602001807f496e76616c696420747261646520706172616d6574657273000000000000000081525060200191505060405180910390fd5b9450945094915050565b600260009054906101000a900473ffffffffffffffffffffffffffffffffffffffff1681565b6000808314156125925760009050612646565b600082840290508284828115156125a557fe5b04141515612641576040517f08c379a00000000000000000000000000000000000000000000000000000000081526004018080602001828103825260218152602001807f536166654d6174683a206d756c7469706c69636174696f6e206f766572666c6f81526020017f770000000000000000000000000000000000000000000000000000000000000081525060400191505060405180910390fd5b809150505b9291505056fea165627a7a72305820fc686a116ac707a944078e6faa87c3a5d916217b7b35b283563fb8ecce907a050029",
  "source": "pragma solidity ^0.5.0;\r\n\r\nimport \"openzeppelin-solidity/contracts/token/ERC20/ERC20.sol\";\r\n\r\n\r\ncontract Orderbook {\r\n\r\n using SafeMath for uint;\r\n \r\nstruct Order\r\n{\r\n    uint Amount;\r\n    uint Price;\r\n    uint TimeStamp;\r\n    address Trader;\r\n    bytes2 Status;\r\n}\r\n\r\nOrder[] Buys;\r\nOrder[] Sells;\r\nERC20 public ERC20Base;\r\nERC20 public ERC20Counter;\r\naddress owner;\r\n\r\nmodifier onlyOwner {\r\n        if (msg.sender!=owner) revert();\r\n         _;\r\n         }\r\n         \r\n\r\nconstructor (address Base,address Counter) public\r\n{\r\nERC20Base = ERC20(Base);\r\nERC20Counter = ERC20(Counter);\r\nowner = msg.sender;\r\n}\r\n\r\nevent BuyAdded(\r\n              uint indexed Order_No,\r\n              uint Amt,\r\n              uint Price,\r\n              address trader\r\n    );\r\n\r\nevent SellAdded(\r\n              uint indexed Order_No,\r\n              uint Amt,\r\n              uint Price,\r\n              address trader\r\n    );\r\n\r\nevent TradeAdd(\r\n              uint indexed Order_No,\r\n              uint Amt,\r\n              uint Price,\r\n              address maker,\r\n              address taker\r\n    );\r\n    \r\n    \r\nfunction addBuy(uint Amt, uint BuyPrice) public returns (uint) \r\n{\r\n    \r\n    ERC20Base.transferFrom(msg.sender, address(this),Amt.mul(BuyPrice));\r\n    Buys.push(Order(Amt,BuyPrice,now,msg.sender,'A'));\r\n    emit SellAdded(Buys.length,Amt,BuyPrice,msg.sender);\r\n\treturn Buys.length;\r\n}\r\n\r\nfunction addSell(uint Amt, uint SellPrice) public returns (uint) \r\n{\r\n    \r\n    ERC20Counter.transferFrom(msg.sender, address(this),Amt);\r\n    Sells.push(Order(Amt,SellPrice,now,msg.sender,'A'));\r\n    emit BuyAdded(Sells.length,Amt,SellPrice,msg.sender);\r\n\treturn Sells.length;\r\n}\r\n\r\n\r\nfunction viewLengthBuy() public view returns (uint) \r\n{\r\n    return Buys.length;\r\n}\r\n\r\nfunction viewLengthSell() public view returns (uint) \r\n{\r\n    return Sells.length;\r\n}\r\n\r\nfunction viewBuy(uint OrderNo) public view returns (uint,uint,uint, address) \r\n{\r\n    return (\t\r\n                    Buys[OrderNo-1].Amount,\r\n                    Buys[OrderNo-1].Price,\r\n                    Buys[OrderNo-1].TimeStamp,\r\n                    Buys[OrderNo-1].Trader\r\n                    );\r\n}\r\n\r\nfunction viewSell(uint OrderNo) public view returns (uint,uint,uint,address) \r\n{\r\n    return (\t\r\n                    Sells[OrderNo-1].Amount,\r\n                    Sells[OrderNo-1].Price,\r\n                    Sells[OrderNo-1].TimeStamp,\r\n                    Sells[OrderNo-1].Trader\r\n                    );\r\n}\r\n\r\nfunction trade(uint OrderNo, uint Amt, uint TradePrice, uint trade_type) public returns ( uint, uint , address)  \r\n{\r\n    \r\n    // 1 is Buy trade , 2 is Sell Trade\r\n    \r\n    if (trade_type == 1 && Sells[OrderNo-1].Amount == Amt)\r\n    {\r\n        require(TradePrice >= Sells[OrderNo-1].Price, \"Invalid Price\");\r\n        ERC20Base.transferFrom(msg.sender, Sells[OrderNo-1].Trader,Amt.mul(Sells[OrderNo-1].Price));\r\n        Sells[OrderNo-1].Amount = 0;\r\n        Sells[OrderNo-1].Status = 'T';\r\n        ERC20Counter.transfer(msg.sender, Amt);\r\n        emit TradeAdd(OrderNo, Amt, Sells[OrderNo-1].Price,Sells[OrderNo-1].Trader,msg.sender);\r\n        return (\t\r\n                    OrderNo,\r\n                    Amt,\r\n                    msg.sender\r\n                    );          \r\n    }\r\n    else if (trade_type == 1 && Sells[OrderNo-1].Amount > Amt)\r\n    {\r\n        ERC20Base.transferFrom(msg.sender, Sells[OrderNo-1].Trader,Amt.mul(Sells[OrderNo-1].Price));\r\n        require(TradePrice >= Sells[OrderNo-1].Price, \"Invalid Price\");\r\n        Sells[OrderNo-1].Amount = Sells[OrderNo-1].Amount - Amt;\r\n        Sells[OrderNo-1].Status = 'A';\r\n        ERC20Counter.transfer(msg.sender, Amt);\r\n        emit TradeAdd(OrderNo, Amt, Sells[OrderNo-1].Price,Sells[OrderNo-1].Trader,msg.sender);\r\n\t\treturn (\t\r\n                    OrderNo,\r\n                    Amt,\r\n                    msg.sender\r\n                    );        \r\n    }\r\n    else if (trade_type == 2 && Buys[OrderNo-1].Amount == Amt)\r\n    {\r\n        ERC20Counter.transferFrom(msg.sender, Buys[OrderNo-1].Trader,Amt);\r\n        Buys[OrderNo-1].Amount = 0;\r\n        Buys[OrderNo-1].Status = 'T';\r\n        ERC20Base.transfer(msg.sender, Amt.mul(Buys[OrderNo-1].Price));\r\n        emit TradeAdd(OrderNo, Amt, Buys[OrderNo-1].Price,Buys[OrderNo-1].Trader,msg.sender);\r\n\t\treturn (\t\r\n                    OrderNo,\r\n                    Amt,\r\n                    msg.sender\r\n                    );        \r\n    }\r\n    else if (trade_type == 2 && Buys[OrderNo-1].Amount > Amt)\r\n    {\r\n        ERC20Counter.transferFrom(msg.sender, Buys[OrderNo-1].Trader,Amt);\r\n        Buys[OrderNo-1].Amount = Buys[OrderNo-1].Amount - Amt;\r\n        Buys[OrderNo-1].Status = 'A';\r\n        ERC20Base.transfer(msg.sender, Amt.mul(Buys[OrderNo-1].Price));\r\n        emit TradeAdd(OrderNo, Amt, Buys[OrderNo-1].Price,Buys[OrderNo-1].Trader,msg.sender);\r\n\t\treturn (\t\r\n                    OrderNo,\r\n                    Amt,\r\n                    msg.sender\r\n                    );        \r\n    }\r\n    else\r\n    {\r\n        revert(\"Invalid trade parameters\"); \r\n    }\r\n}\r\n    \r\nfunction decommission() public onlyOwner\r\n{\r\n    uint i = 0;\r\n    while ( i <= Buys.length || i <= Sells.length)\r\n    {\r\n        if( i <= Buys.length)\r\n        {\r\n        uint Amt =  Buys[i].Amount;\r\n        Amt = Amt.mul(Buys[i].Price);\r\n        ERC20Base.transfer(Buys[i].Trader,Amt);\r\n        delete Buys[i];\r\n        }\r\n        \r\n        if( i <= Sells.length)\r\n        {\r\n        ERC20Counter.transfer(Sells[i].Trader,Sells[i].Amount);\r\n        delete Sells[i];\r\n        }\r\n    i++;\r\n        \r\n    }\r\n\r\n    \r\n}\r\n    \r\n}",
  "sourcePath": "C:/Users/collet tshuma/tokenwallet/contracts/orderbook.sol",
  "compiler": {
    "name": "solc",
    "version": "0.5.0+commit.1d4f565a.Emscripten.clang"
  },
  "schemaVersion": "3.0.1",
  "updatedAt": "2022-01-14T07:34:32.317Z",
  "devdoc": {
    "methods": {}
  },
  "userdoc": {
    "methods": {}
  }
}